:020000040800F2
:10000000E8070020CD0100080D22000805220008A5
:1000100009220008190F0008D12200080000000082
:10002000000000000000000000000000C5220008E1
:100030001D0F00080000000011220008C92200085E
:10004000E7010008E7010008E7010008E7010008F0
:10005000E7010008E7010008E7010008E7010008E0
:10006000E7010008E7010008E7010008E7010008D0
:10007000E7010008E7010008E7010008E7010008C0
:10008000E7010008E7010008E7010008E7010008B0
:10009000E7010008E7010008E7010008E7010008A0
:1000A000E7010008E7010008E7010008E701000890
:1000B000E7010008E7010008E7010008E701000880
:1000C000E7010008E7010008E7010008E701000870
:1000D000E7010008E7010008E7010008E701000860
:1000E000E7010008E7010008E701000800F002F856
:1000F00000F05DF814A696E8000CB244B344DA456B
:1001000001D100F054F8BAE80F000FA696E83000CD
:10011000A5EB040504EB0607AAEB0704A7F101070A
:100120004FEA15154FEA3414A4F10104AC4201D38F
:1001300000F03DF813F0010F18BFFB1A43F0010364
:1001400000F001F8DBE71847642500008425000073
:10015000103A24BF78C878C1FAD8520724BF30C8F3
:1001600030C144BF04680C60704700007047000055
:100170000023002400250026103A28BF78C1FBD8B0
:10018000520728BF30C148BF0B607047632900F099
:10019000F780002070471FB59DE8030000F0DEFCEB
:1001A00000F01AFA1FBD10B500F07FFA10BD00F084
:1001B000E2FA1146FFF7EFFF02F08CF800F09CFC2A
:1001C00003B4FFF7F0FF03BC00F0BAFD0948804715
:1001D00009480047FEE7FEE7FEE7FEE7FEE7FEE729
:1001E000FEE7FEE7FEE7FEE704480549054A064B41
:1001F00070470000CD220008ED000008E801002053
:10020000E8070020E8030020E80300200FB40449B9
:1002100010B503AA029800F0BFF810BC5DF814FBFB
:100220006C0000202DE9F0410E46044600202062BB
:100230002046E168884730B3252805D0D4E901215C
:100240009047206A401CF2E7E16820460027884773
:10025000050018D0A5F14100192802D820354FF427
:1002600000673246294620462760FFF78FFF40B1DE
:10027000012804D0F61D26F007060836D8E7361DFB
:10028000D6E72846DAE7206ABDE8F08170B50C466B
:100290000546012A05D02878800600D5EA690023A2
:1002A00002E0012305E05B1C934202D2E05C0028DF
:1002B000F9D1A869E618C01AA861286A184428620A
:1002C0002846AFF3008004E0D5E9012114F8010BC2
:1002D0009047B442F8D32846AFF3008070BD0000C9
:1002E000014902F0B1B900006C00002010B50446CD
:1002F00003E002F0A9F9401C09D014F8010B0549EC
:100300000028F6D1BDE810400A2002F09DB94FF058
:10031000FF3010BD6C0000204FF0000200B5134606
:1003200094469646203922BFA0E80C50A0E80C5015
:10033000B1F12001BFF4F7AF090728BFA0E80C50C6
:1003400048BF0CC05DF804EB890028BF40F8042BBF
:1003500008BF704748BF20F8022B11F0804F18BF2C
:1003600000F8012B704770477047704710B543691C
:1003700013B1AFF3008001E0FFF788FF012010BD4B
:10038000127800F124010A7000224A700122EDE780
:1003900011684FF0FF32E9E7074B70B50D467B441B
:1003A00000F011F80446284600F020F810B14FF094
:1003B000FF3070BD204670BDA722000001694A1CB5
:1003C00002610878704700B58FB0CDE90131002196
:1003D000059105497944CDE9031011466846FFF7B8
:1003E00021FF0FB000BD0000E5FFFFFF007B00F024
:1003F000800070472DE9F05F054617460C46C86837
:1004000020F4201040F48000C860800602D5084621
:1004100000F0B3FAE06841F282014FF0FF3A014088
:10042000022903D0204600F045FAB9E000F420414B
:10043000B1F5004F0FD1C00306D56168E06A88426C
:1004400000D80846606006E02069E062606060698C
:1004500000F08BF9A061A0680022EEB200280DDA4E
:10046000E1688B050AD4C043A06041F4903022605B
:10047000E0606068411C61600670AAE0E068914637
:10048000226040F40050E060206978BB606900F0B1
:100490005EF904F124054FF00108A8B1A08910F419
:1004A000407F08D0E06900F08BF9206118B1E06866
:1004B00040F4006017E0C4F81C802561E06820F477
:1004C000407040F480600EE0E06900F079F90028A7
:1004D0002061F0D0E06840F4006010F4407FE060FC
:1004E00002D140F48070E06020696060E0682569B6
:1004F0006FF0010BC1051ED56168E06A884200D823
:100500000846411B04D02246284600F0DDF9E8BB2E
:100510001FB1E562C4E9015959E0681CE0626060FE
:10052000E069401EA060E06840F48030E060304642
:100530002E70BDE8F09F17B100F480320AE06068C9
:10054000411C61600670E0680A2E40F48030E06073
:1005500006D00022E16A6068814203D90B4602E0BE
:100560000122F7E70346B4F80CC05B1B5FEA4C5C62
:1005700004D4D4F81CC09C4500DD02B3814200D8ED
:100580000146002BA1EB0008E56200E008E0C4E9A9
:10059000015907DD22461946284600F095F908B1B1
:1005A0005046C6E7B8F1000F09D0A169E562656061
:1005B000A1EB0800A061E06840F01000E06047B1E6
:1005C0006168A069E562491B08446560A0615846FE
:1005D000AFE73046ADE7000010B542485421FFF7C1
:1005E0009BFE41485421FFF797FE40485421FFF7F6
:1005F00093FE3F493B483C4A3F4B08603D490A60F7
:100600003A491960531C0365481C106501200865B0
:100610003B48344A39A1784400F0D0F920B9384831
:1006200078440A3800F071FA37482F4A35A17844E7
:1006300000F0C4F920B9344878440A3800F065FA6B
:1006400032482A4A2FA1784400F0B8F920B92F483F
:1006500078440A3800F059FA40232248DC0000218F
:10066000224600F003F920B125487844543800F0C0
:100670004CFA1D4822464023002100F0F7F820B133
:1006800021487844543800F040FA18482246102394
:10069000002100F0EBF8002806D01C487844BDE8A3
:1006A0001040563800F031BA10BD104870B5006DDA
:1006B00020F001040B4800F0F9F90B4800F0F6F9BE
:1006C0000A4800F0F3F909E0206D20F0010520460A
:1006D00000F0ECF9204600F0A2F82C46002CF3D1F3
:1006E00070BD0000180000206C000020C000002039
:1006F000000000200400002008000020720000001C
:100700004A20000077000000362000002220000070
:100710000EB5CDE9000100F0F3FA02906946012020
:10072000ABBE0EBD08B5694600900220ABBE08BD49
:100730001FB58DE8070069460520ABBE04B010BDAB
:100740001FB58DE80F0069460620ABBEF6E708B579
:10075000694600900920ABBE08BD1CB5CDE900017B
:1007600069460A20ABBE1CBD704708B569460090BB
:100770000C20ABBE08BD754600F0CEF9AE460500B4
:100780006946534620F00700854618B020B5FFF7AC
:100790002BFDBDE820404FF000064FF000074FF062
:1007A00000084FF0000BAC46ACE8C009ACE8C0094B
:1007B000ACE8C009ACE8C00921F007018D467047DC
:1007C00070B5064600F0AEF9056806F10B0020F0A2
:1007D0000704B4429CBF002070BD2B466A68BAB1C2
:1007E0001068A04210D304F1080188423CBF506851
:1007F000586007D35168101941601168091B0160E6
:1008000058601460101D70BD13465268002AE7D16D
:100810002146284600F08EF90028DED170BD70B563
:100820000446051F00F07EF90068002C14BF4468E0
:1008300070BD002C18BFAC423CBF20466468F8D3A2
:1008400001680A18AA4218BF456003D12A68054604
:100850001144016028684119A1421CBF6C6070BD41
:100860006168696021680844286070BD70B5C4681B
:10087000A50713D0650211D4B2F5807F09D0B2F577
:10088000007F06D0B2F5806F08D1012300F124016A
:1008900006E05D1E6FF07F46B54201D3012070BDBA
:1008A0000161C361416024F470611143C1600020A3
:1008B00070BD0000C16821F4001141F08001C160E9
:1008C00000218160016070472DE9F74F15460C4605
:1008D0004FF0FF3B3848D768D2F814A0074209D040
:1008E0005046A969FFF739FF002819DB3248C04399
:1008F0000740EF604FF000496FF000484C4501D3CE
:10090000464600E0264600993B4650463246FFF7F1
:100910000FFFA96920F00042B21A1144A96128B161
:100920002846FFF7C7FF5846BDE8FE8FA41BE5D158
:100930000020F9E770B504460569C06A616888421D
:1009400000D80846E16821F42011E160C90312D5FE
:10095000A84208D02246411B2846FFF7B5FF10B138
:100960004FF0FF3070BD0020E562C4E90150E0683F
:1009700020F48030E060002070BD10B50446C068EF
:1009800020F02000E060A16AA06988420DD02046D6
:10099000FFF7D0FFE06820F4405040F01000E06026
:1009A000A06AA0612069E062606044F24001E068F2
:1009B0008843E06010BD0000100002002DE9F04106
:1009C0000C461646070047D0104600F06FF8207816
:1009D000611C61280AD0722802D077283CD102E03D
:1009E0000125002405E00225042402E0082448F241
:1009F000020511F8010B2B2806D0622809D011F846
:100A0000010C74280AD00BE045F0030544F0020401
:100A1000EFE745F0040544F00104EAE744F0100470
:100A200038462146FFF774FE411C15D00021316184
:100A300071604FF40071F560F1617061200704D5B9
:100A400030460222002100F0BFF8306D40F0010076
:100A500030653046BDE8F0810020FBE72DE9F0412C
:100A60000D460646104C206DC10704D0410804D045
:100A700020F00104F7E722460EE05420FFF7A0FE25
:100A800007000ED0206D47F0010108435421206576
:100A90003846FFF741FC3A4629463046BDE8F0416A
:100AA0008CE70020D6E70000180000202DE9F04771
:100AB00004464FF0FF380026C568D4E90497A8071C
:100AC00018D02046FFF736FF3846FFF72BFE0028E8
:100AD00000DA4646280502D54846FFF7A0FE4C211D
:100AE0002046FFF719FC206D20F0010020653046FC
:100AF000BDE8F0874046FBE710B50446AFF3008041
:100B00002046BDE81040FFF75BBB10B500F0DEF8F3
:100B1000BDE8104000F0D4B8004870471401002030
:100B200070470000004870471C0100207047704764
:100B30007047704738B504460A4600206946AFF34F
:100B40000080002808BF38BD02460099204600F00A
:100B5000FDF8012038BD012000F04CB9F8B5AFF325
:100B60000080054600200C460C2000BF0646A81950
:100B7000A0420DD9324669460020AFF3008007003D
:100B800008BF00F037F90098A04218BF0546C41905
:100B9000FFF7C8FF05600746F01D20F00700461963
:100BA000284600F00AF8B44208BFF8BDA21B31463F
:100BB0003868BDE8F84000F0C9B800210160416024
:100BC00070470C20704700002DE9F041044616469E
:100BD0000D464769007B80072ED03846FFF7B7FDEA
:100BE00050BB3EB3012E02D0022E25D104E0204698
:100BF00000F0C6F805441DE03846FFF7B6FDE16891
:100C0000002841F01001E16005DA2046FFF752FEAE
:100C10000120BDE8F081C9030BD56268E16A914209
:100C200000D81146A26911442269891A814200DD67
:100C300008460544002D01DA0220EAE7E16A60680F
:100C4000E268814206D29103E06203D522F40031CA
:100C500041F01002A6690027AE4213DCE16A81422E
:100C600001D90B4600E0034603EB060C2369ACEB0D
:100C7000030CAC4506DD814201D98C4600E0844678
:100C80009C4505D1A760276042F02000A5620DE0D9
:100C9000AD1BE669AE1B8142A66000D90846C01AAA
:100CA000281A20605819606022F02000034908408B
:100CB000E060002084F84870ABE70000BFCFD7FFAA
:100CC000002801D000F03CB87047000010B5014684
:100CD00002A000F076F8012010BD000053494752F1
:100CE000545245443A2052656469726563743A20EF
:100CF00063616E2774206F70656E3A2000000000FB
:100D000010B5431C02E010F8011B71B18107FAD144
:100D10004FF0013202C88C1A8C4314EAC211F9D088
:100D2000C01A0A0603D0C01E10BDC01A10BD0A04A6
:100D300001D0801E10BD0902FCD0401E10BD000075
:100D400001491820ABBEFEE72600020003464068BA
:100D50008C46002818BF88423CBF03464068F8D341
:100D600018681844884207D00CF1030020F00700EF
:100D7000001D411A521A0146081D0A60FFF74FBDB7
:100D800010B50146C268900703D0900607D5886A5F
:100D90000AE000F03DF801210160881E10BD8B695A
:100DA000486818440B69C01A91F848301BB191F893
:100DB0004910401A10BD1103FCD50028FADD401E71
:100DC00010BD70B505460C460A2000E06D1C00F011
:100DD00018F835B128780028F8D102E0641C00F03A
:100DE00010F814B120780028F8D1BDE870400A202E
:100DF00000F007B810B500F00FF8BDE81040FFF79D
:100E00005FBF08B569468DF800000320ABBE08BD82
:100E1000004870471401002010B5012805D00021BA
:100E200003A0FFF7CEFF012010BD09A1F8E70000E5
:100E300053494752544D454D3A204F7574206F66C3
:100E40002068656170206D656D6F7279000000002B
:100E50003A2048656170206D656D6F727920636F0F
:100E60007272757074656400B0B582B0044600207B
:100E7000019021688A68D2074BD1886840F0010050
:100E8000886040F21400C2F2000000684DF68361F1
:100E9000C4F21B31A0FB0101880C01900198A0B1A4
:100EA000019801380190019878B1019801380190BA
:100EB000019850B1019801380190019828B101982A
:100EC0000138019001980028EAD100F0E7FC216880
:100ED0008968C9071CD1054603E000BF8068C007C8
:100EE00016D100F0DBFC411B20680329F6D3816892
:100EF000C907F3D1A06A40F01000A062E06A40F098
:100F00000100E062002084F82400012002B0B0BD9E
:100F1000002002B0B0BD0000FEE7000070470000F6
:100F200010B581B00022009290F82420012A03D14C
:100F30000221084601B010BD4B680122062B80F843
:100F4000242033D8D0F800C003EB83035A1F1F239B
:100F5000DCF834E003FA02F40B682EEA040403FA26
:100F600002F22243CCF83420092B03EB430249D987
:100F7000DCF80CE01E3A0724896894402EEA040449
:100F8000914023F001022143102ACCF80C1043D1E8
:100F900042F20841C4F20101A1F10802944543D094
:100FA000816A41F020018162012136E0D0F800C061
:100FB0000C2B03EB830213D8233A1F23DCF830E019
:100FC00003FA02F40B682EEA040403FA02F2224345
:100FD000CCF83020092B03EB4302C9D812E000BF44
:100FE000413A1F23DCF82CE003FA02F40B682EEAE6
:100FF000040403FA02F22243CCF82C20092B03EB61
:101000004302B5D8DCF81030072489689440A34324
:1010100091401943CCF810100021002280F82420C0
:10102000084601B010BD00BF0A681202F4D40A6875
:10103000102B42F400020A60EED140F21401C2F219
:10104000000109684DF68362C4F21B32A1FB021253
:10105000910C01EB81014900009100990029DBD03E
:1010600000990139009100990029D5D000990139E2
:10107000009100990029CFD0009901390091009981
:101080000029C9D0009901390091009900294FF039
:101090000001E5D1C1E700000068C06C70470000A6
:1010A000002804BF01207047B0B50446806A28B10B
:1010B00021688868C0070CD115E000BF0020E062FD
:1010C00084F82400204600F09BF821688868C00757
:1010D00009D0886820F00100886000F0DFFB2168FB
:1010E0008A68D20726D1A06AC0063AD4A06A41F223
:1010F000021290430230A062E069D4E9013240EA72
:10110000030C531EB3FA83F35D091346B2F5807FD7
:1011100018BF2B02207D257B01284CEA450030D1E9
:1011200035B3A56A45F02005A562E56A45F00105DD
:10113000E56226E0054602E08868C007D3D000F0EB
:10114000ADFB401B21680328F6D38868C007F3D0A5
:10115000A06A40F01000A062E06A40F00100E06286
:10116000A06AA06A40F01000A0620120B0BD00BFDC
:10117000D4F818C04EF60005CFF6FF7505EB4C35D8
:101180002B434D68B2F5807F25F4694543EA05039A
:101190004B608B684FF2FD75CFF6E17503EA0503EE
:1011A00043EA00038B6001D0012A07D122690023A2
:1011B000CFF6F07303EB025201E000BF0022CB6ACE
:1011C00023F470031A43CA62896840F6FE62CFF6C0
:1011D0001F721140814207D10020E062A16A012202
:1011E00062F30101A162B0BDA06A40F0100020F0DE
:1011F0000200A062E06A40F00100E0620120B0BDA0
:1012000080B586B0006842F60001C4F20101884250
:101210004FF00001CDE90411CDE902111ED042F2D8
:101220000041C4F20101884239D141F21800C4F2F0
:101230000200016841F400710160016801F400716D
:1012400001910199016841F004010160006800F01A
:10125000040001900198032017E000BF41F218003C
:10126000C4F20200016841F480610160016801F488
:10127000806101910199016841F0040101600068F9
:1012800000F00400019001980C20029003200390CC
:1012900040F60000C4F2010002A900F0F1F906B026
:1012A00080BD0000F0B581B000270D4604460097D0
:1012B00000F0F4FA21688A68D20543D406464868EB
:1012C000C00503D4C86A10F4700F45D040F2140072
:1012D000C2F200000768022000F08AFB216844F691
:1012E00024130A69B7FBF0F0C2F292431A4206D106
:1012F000CA6844F62413C0F292031A425ED00A6907
:1013000042F29243C1F249231A4207D1CA6842F21B
:101310009243C0F249031A4200F0C0800A6949F2C0
:101320004923C0F224031A424FF0FC0257D1CF6880
:101330001F4208BF5422009B02FB00F7BB4253D35D
:10134000C3E000BFA06A40F02000A06284F82470CF
:10135000012001B0F0BD00BF0868800700F1B58032
:10136000681C00F0A880FDB90868800772D508687D
:10137000800700F1AA80086880076BD5086880079D
:1013800000F1A3800868800764D50868800700F131
:101390009C80086880075DD508688007E4D594E0E4
:1013A0000868800700F1918000F078FA801B2168BE
:1013B000A842F5D908688007F2D44BE00A6942F2E6
:1013C0009243C1F249231A424FF0290207D1CB6858
:1013D00042F29247C0F249073B4208BF1422009BE9
:1013E00002FB00F7BB4270D2681C4FD055BB00987F
:1013F000B8422FD30098013000900098B84264D2D0
:101400000098B84226D30098013000900098B84266
:101410005BD20098B8421DD300980130009000982C
:10142000B84252D20098B84214D3009801300090CC
:101430000098B842DBD348E0009801300090009853
:10144000B84233D200F02AFA801BA842F4D900989F
:10145000B842F1D2A06A40F00400A062002084F8F3
:101460002400032001B0F0BD0098013000900098E6
:10147000B8422AD20098013000900098B84224D295
:101480000098013000900098B8421ED200980130B8
:1014900000900098B842E7D317E000BF5422009BA9
:1014A00002FB00F7BB429FD30FE000BF21680CE0B6
:1014B0000868800709D40868800706D40868800790
:1014C0005CBF08685FEA8070F2D56FF012000860B8
:1014D000A06A40F40070A062886800F46020B0F553
:1014E000602F01D1207B18B1002001B0F0BD00BFFA
:1014F000A06A20F48070A062A06AC004F4D4A06A3C
:1015000040F00100A062002001B0F0BD10B504461B
:1015100090F82400012804BF022010BD012084F8A7
:1015200024002046FFF7A0FC20B1002084F824000E
:10153000012010BD42F2044C2068A16AC4F2010CE3
:1015400040F2013291430CF57F7201F580719042B7
:10155000A16233D0A16A21F48011A16241684905DA
:1015600004D5A16A012363F30D31A162A16A0023AE
:10157000C9044FF0000144BFE16A21F00601E162B5
:101580006FF0020184F824300160816801F4602169
:10159000B1F5602F06D190420AD1DCF8001011F4A9
:1015A000702F05D0816841F480118160002010BD4A
:1015B000816841F4A0018160002010BDDCF80010BA
:1015C00011F4702FC6D0A16A41F48011A162DCF839
:1015D00000104905C5D4C9E7B0B5044690F8240009
:1015E000012804BF0220B0BD0121206884F8241026
:1015F0008168C90709D0816821F00101816000F08C
:101600004DF921688968C9070ED1214651F8280F84
:1016100041F2011220EA0202002042F001020A60B7
:10162000002184F82410B0BD054602E08068C007A0
:10163000EBD000F033F9411B20680329F6D3816811
:10164000C907F3D0A06A214640F01000A06251F80B
:101650002C2F0120E1E70000B0B5044600F01EF990
:10166000054640F20C00C2F200000078611C18BF71
:10167000044400BF00F012F9401BA042FAD3B0BDF1
:101680002DE9F04F82B00E68002E00F0FD8041F28F
:101690000042C4F20102042340F2004E904208BF0F
:1016A00003234FF6FF7CC4F2010E009300240123B4
:1016B000C1F2100C4FF0000A4FF0000944E000BFE7
:1016C000012704F00C030F229A402BEA020207FACA
:1016D00003F34FEA9A051A4346F825204E6840F274
:1016E0000C45F202DEF8082054BF22EA080242EA62
:1016F0000802C4F20105CEF808202A68B30254BFDC
:1017000022EA080242EA08022A60B303DEF8042053
:1017100054BF22EA080242EA0802F303CEF804208A
:10172000DEF800204FF0010354BF22EA080242EA2B
:101730000802CEF800200E680AF1010A36FA0AF211
:1017400004F1040400F0A08003FA0AFB16EA0B0877
:10175000F1D04E68664511DC122E55D8DFE806F050
:10176000340A4448545454545454545454545454BF
:10177000544C5000D1F80C9046E000BF4FF6FF7279
:10178000C1F2210296420FDC0022C1F21102964200
:101790001AD00022C1F21202964215D00022C1F2E4
:1017A0002102964210D02FE00022C1F2220296427E
:1017B0000AD00022C1F23102964205D00022C1F2C5
:1017C0003202964220D100BF8A684AB1012A14BF72
:1017D000C0F814B0C0F810B04FF0080914E000BF12
:1017E0004FF0040910E000BFCA6802F108090BE0DD
:1017F0004FF0000908E000BFCA6802F1040903E0E5
:10180000CA6802F10C0900BF22460646B8F5807F7F
:1018100024BF203A043637680F25954027EA05058E
:1018200009FA02F22A433260CA79D2067FF583AF01
:1018300041F21803C4F202031A68AEF57E7642F054
:1018400001021A601A6802F001020192019A2AF05C
:10185000030256F802B040F60002C4F201029042C0
:1018600010D040F60042C4F2010290423FF428AF8B
:1018700041F20002C4F20102009F904208BF022719
:101880001FE700BF00271CE702B0BDE8F08F000093
:101890008068084018BF01207047000040F2E41043
:1018A000C2F200000068704740F20C0040F2E41100
:1018B000C2F20000C2F2000100780A681044086019
:1018C0007047000080B542F20000C4F202000168D7
:1018D00041F010010160032000F07AF80F2000F0C1
:1018E00005F800F027F8002080BD000070B540F238
:1018F0000C06C2F2000640F214013278C2F2000176
:101900004FF47A730968B3FBF2F20446B1FBF2F1CB
:10191000084600F061FC0F2C4FF0010508D838B9DB
:101920004FF0FF3021460022002500F025F87460BA
:10193000284670BD82B041F21800C4F2020001686E
:10194000042241F001010160016801F001010191EF
:101950000199416841F080514160406800F0805039
:10196000009000980420C4F20100016862F31A613B
:10197000016002B07047000010B54EF60C5CCEF26C
:10198000000CDCF80030C3F3022E8EF00704042CA8
:1019900028BF0424BEF103034FF0FF3E0EFA04F407
:1019A00038BF0023A14399400EFA03F39A43114331
:1019B00000F00F0200F160430901043A03F56443AB
:1019C0006244002848BF02F10C03197010BD0000EA
:1019D0004EF60C51CEF200010A684FF6FF031A4092
:1019E00060F30A2242F0806040F0FD7008607047AA
:1019F00001280FD002282DD0102808D141F204016F
:101A0000C4F202010A6851F8040CC00134D4002069
:101A1000704700BF41F20400C4F20200C16940F205
:101A200002320A40B2F5817F04BF4FF40040704794
:101A300001F44071B1F5407F2AD0B1F5007F1CBFA1
:101A400000207047006A49F64041800701EAE070D3
:101A5000704700BF80B500F0ABF941F20401C4F259
:101A6000020109680222C1F3813102EB4101B0FB9E
:101A7000F1F0BDE880407047C2F3834015A3185CC5
:101A8000D2030DD440F60012C0F23D02504313E0E1
:101A900050F8040C4FF22441800301EAE0707047D3
:101AA0000A6810A3C2F340429A5C41F20023C0F2DC
:101AB0007A03B3FBF2F250430968490248BF70470A
:101AC0004AF6AB214000CAF6AA21A0FB0101480852
:101AD000704700BF02030405060708090A0B0C0D36
:101AE0000E0F1010010200002DE9F04182B00446F3
:101AF000007841F21C06C007C4F202064AD03068E2
:101B00005FEAC00808D4306840F080503060306828
:101B100000F080500190019847F20007C4F20007DE
:101B20003868C00512D4386840F480703860FFF718
:101B3000B5FE05463868C00508D4FFF7AFFE401B68
:101B40006428F7D9032002B0BDE8F081706810F472
:101B5000407012D0616801F4407188420DD0706805
:101B600040F24042C4F24222012320F4407113604B
:101B70000023C0071360716026D17068616820F48B
:101B800040700843B8F1000F706003D4306820F053
:101B9000805030602068810707D556F8181CA2686D
:101BA00021F44041114346F8181CC00607D556F8E9
:101BB000180CE16820F48000084346F8180C002057
:101BC00002B0BDE8F08100BFFFF768FE054641F2B4
:101BD000883700BF70688007CFD4FFF75FFE401BD7
:101BE000B8424FF00300F5D9EAE70000002804BF2F
:101BF000012070472DE9F04381B042F20008C4F2A1
:101C000002080446D8F800000D4600F0070088429C
:101C10000CD2D8F8000020F007002843C8F80000D4
:101C2000D8F8000000F00700A8426CD1206841F20B
:101C300004098107C4F2020917D5410705D5D9F86F
:101C4000001041F4E061C9F80010010705D5D9F88A
:101C5000001041F46051C9F80010D9F80010A268D2
:101C600021F0F0011143C9F80010C00742D1D8F8A3
:101C7000000000F00700A8420CD9D8F8000020F0BE
:101C800007002843C8F80000D8F8000000F007005B
:101C9000A84238D12068410707D5D9F80010E2687A
:101CA00021F4E0611143C9F80010000708D5D9F804
:101CB0000000216920F4605040EAC100C9F800002A
:101CC000D9F8002002F00C00082841F20020C0F2F0
:101CD0007A0051D142F28A63C2F38341C0F6000315
:101CE000595CD2033CD440F60010C0F23D0048439A
:101CF00042E000BF606802280AD001282AD159F8C2
:101D0000041C890308D4012001B0BDE8F08300BFA2
:101D100059F8041C8901F6D5D9F8001021F0030107
:101D20000843C9F80000FFF7B9FD064641F28837BD
:101D3000D9F80000616800F00C00B0EB810F96D07C
:101D4000FFF7ACFD801BB842F2D9032001B0BDE81B
:101D5000F08300BF59F8041C8907D4D5DCE700BF25
:101D6000D9F8002042F28863C2F34042C0F6000373
:101D70009A5C4843B0FBF2F0D9F8001042F270626E
:101D8000C1F30311C0F60002515C40F2140220FAC4
:101D900001F140F21000C2F200000068C2F200023D
:101DA0001160FFF7A3FD002001B0BDE8F083000043
:101DB00040F2140041F20401C2F20000C4F2020138
:101DC0000068096842F28062C1F3C221C0F60002D5
:101DD000515CC84070470000002804BF01207047D4
:101DE0002DE9F04182B00446007841F20006C007B8
:101DF000C4F202060CD0706800F00C00042840F019
:101E000081803068800303D56068002800F04E812F
:101E1000207880071BD5706810F00C0F09D070680F
:101E200000F00C00082840F08B807068C00300F1BF
:101E300087803068800703D52069012840F036810B
:101E40003068616920F0F80040EAC1003060207815
:101E5000000713D4207840072CD4E569002D00F04A
:101E60002081706800F00C00082840F0AF80012D40
:101E700040F00C81012002B0BDE8F081A06900288B
:101E800000F08C800020C4F242200121C0F88014B0
:101E9000FFF704FD054600BF706A800700F1BA80B5
:101EA000FFF7FCFC401B0228F6D9032002B0BDE876
:101EB000F08100BFF0695FEAC00808D4F06940F023
:101EC0008050F061F06900F080500090009847F277
:101ED0000007C4F200073868C0054DD4386840F4E4
:101EE00080703860FFF7DAFC054600BF3868C0052F
:101EF00042D4FFF7D3FC401B6428F7D9032002B07B
:101F0000BDE8F081706800F00C00082803D170680B
:101F1000C0033FF576AF6068002800F00981B0F596
:101F2000A02F00F01D81B0F5803F00F01D813068CA
:101F300020F480303060306820F4802017E100BF4A
:101F40002069002840F20000C4F2422000F08C809A
:101F500001210160FFF7A2FC054600BF3068800741
:101F60003FF56EAFFFF79AFC401B0228F6D903201D
:101F700002B0BDE8F08100BFE068002800F09A8060
:101F8000052800F0B180012800F0B280306A20F00E
:101F900001003062306A20F00400ACE00020C4F29E
:101FA00042200021C0F88014FFF778FC054600BFEE
:101FB000706A80077FF54EAFFFF770FC401B022868
:101FC000F6D9032002B0BDE8F08100BF0027C4F2BB
:101FD000422700203866FFF761FC022D05460DD12F
:101FE0003068800140F1D680FFF758FC401B022882
:101FF0004FF00300F4D902B0BDE8F08130688001F1
:102000004FD5FFF74BFC401B02284FF00300F5D9DA
:10201000F1E700BF40F21400C2F20000006844F68D
:10202000D351C1F26201A0FB0101480A019000BF37
:1020300000BF0198411E002801913FF40BAF00BF83
:102040000198411E002801913FF404AF00BF0198A0
:10205000411E002801913FF4FDAE00BF0198411ED2
:1020600000280191E4D1F5E600210160FFF716FC9C
:10207000054600BF306880077FF5E9AEFFF70EFC2C
:10208000401B02284FF00300F4D9B4E77068216ABE
:1020900000F480328A4209D1616A00F470108842EB
:1020A00004D1002002B0BDE8F08100BF012002B0E1
:1020B000BDE8F081306A20F001003062306A20F023
:1020C00004003062FFF7EAFB054641F2883700BFA3
:1020D000306A800722D5FFF7E1FB401BB8424FF082
:1020E0000300F5D987E700BF306A40F00400306292
:1020F000306A40F001003062FFF7D0FB054641F244
:10210000883700BF306A800708D4FFF7C7FB401B41
:10211000B842F7D9032002B0BDE8F081B8F1000F52
:102120003FF59BAEF06920F08050F06195E600BF6E
:10213000306820F480303060306820F480203060D7
:10214000FFF7ACFB054600BF306880037FF560AE4B
:10215000FFF7A4FB401B64284FF00300F4D94AE7C3
:10216000306840F480203060306840F48030306067
:10217000FFF794FB054600BF306880033FF548AE8B
:10218000FFF78CFB401B6428F6D9032002B0BDE8A2
:10219000F08100BF206AB0F5803F05D17168A26868
:1021A00021F40031114371607168626A21F4741185
:1021B00011430843706001203866FFF76FFB044647
:1021C000306880013FF56DAFFFF768FB001B022808
:1021D0004FF00300F4D90EE7411E0020B0EB116F61
:1021E0001CBF012070474EF21002CEF20002516077
:1021F0004EF62351CEF20001F0230B7007219060C0
:1022000011607047FEE70000FEE70000FEE70000F7
:102210007047000070B50A20FEF762F840F27416AD
:10222000C2F2000642F29A64F179C0F60004204638
:10223000FDF7ECFF7C20FEF753F8317A2046FDF7DE
:10224000E5FF7C20FEF74CF8717A2046FDF7DEFFB3
:102250000A20FEF745F842F29F65C0F600052846C1
:10226000FEF744F8B17A2046FDF7D0FF7C20FEF758
:1022700037F8F17A2046FDF7C9FF7C20FEF730F8E9
:10228000317B2046FDF7C2FF0A20FEF729F82846D9
:10229000FEF72CF8717B2046FDF7B8FF7C20FEF797
:1022A0001FF8B17B2046FDF7B1FF7C20FEF718F840
:1022B000F17B2046FDF7AAFF0A20BDE87040FEF73B
:1022C0000FB8000070470000FFF7EEBA704700003B
:1022D000FEE7000094B0FFF7F5FA0AAC201D2421B8
:1022E000FEF71AF802200A9001200E901020002517
:1022F0000F9020460495CDE902551195FFF76CFD2E
:1023000020B1EFF3108072B6FEE700BF0F20CDE9D9
:10231000050505A80021CDE907550995FFF766FCDD
:1023200020B1EFF3108072B6FEE700BF02200190EB
:10233000002501A80395FFF7D7FB28B1EFF3108024
:1023400072B600BFFEE700BF41F218000D95C4F25F
:102350000200016840F6000B41F0040101600068D2
:10236000C4F2010B00F00400059005983020CDE97F
:102370000A0501260AA958460C96FFF781F940F292
:102380007414C2F200040BF5E051204640F8101F0F
:102390004FF4602105730575C161C0E901550661FF
:1023A000FEF77EFE20B1EFF3108072B6FEE700BFAD
:1023B000052004F110054FF000080C900AA92846EA
:1023C000CDE90A86FEF7ACFD20B1EFF3108072B6BE
:1023D000FEE700BF0BF50051204640F8401F4FF4C8
:1023E0006021012680F80C8080F81480C161C0E96A
:1023F00001880661FEF754FE20B1EFF3108072B63B
:10240000FEE700BF0220CDE90A064FF0050A04F1FD
:1024100040000AA9CDF830A0FEF782FD20B1EFF30D
:10242000108072B6FEE700BF4FF02030C4F80700FE
:10243000C4F80B002020E073FFF7ECFE4FF001081A
:102440000AAE06E020780021204441716420FFF7A5
:1024500003F920780AA9002818BF0120400081E86C
:10246000010528463146FEF75BFD2846FFF74EF88A
:1024700028464FF0FF31FEF715FF2846FEF70CFE09
:102480001FFA80F92846FFF7A7F820780AA9002844
:102490004FF0030008BF012081E8010528463146BE
:1024A000FEF73EFD2846FFF731F828464FF0FF3192
:1024B000FEF7F8FE2846FEF7EFFD07462846FFF731
:1024C0008BF84FEAD9007C2806D8207821184A7862
:1024D00072B1013A4A7021E040F6B930814507D324
:1024E000207821184A78012A02D801324A7015E072
:1024F000B9B240F6B930814206D320782118CA78A3
:1025000062B1013A09E000BF2078C9087C2905D8EA
:102510002118CA78012A01D80132CA7000284FF068
:102520002001584608BF1021FFF7B2F901283FF4F7
:1025300089AF00287FF48AAF207821184A79002AD1
:102540007FF484AFCA78497802EB420222441144F6
:1025500011F8072F202A0DD100284FF04F0008BF97
:1025600058200870FFF756FEE079202804D1A17AA0
:1025700012E000BF012167E7217A884202D1617A27
:10258000884206D0A17A884206D1617B8842014602
:1025900006D1014628E000BF202901D1E27A05E0FA
:1025A000E27A914202D1237B99421DD0237AA17B0A
:1025B000202B05D0934203D18B4201D1114613E069
:1025C000637B94F80FE0202B03D08B4201D173453D
:1025D0000AD094F809C0BCF1200F15D0217B8C459E
:1025E00012D1F44571460FD112A0FDF70FFE4FF046
:1025F0002030C4F80700C4F80B002020E073FFF778
:1026000009FE207801211FE7202804D0904202D142
:1026100072450146E8D0BCF1200F04D09A4202D1A5
:1026200094451146E0D020780121B0FA80F04009AD
:10263000207009E7506C6179657220256320776905
:102640006E73210A000000008A68002A02DC002262
:10265000FDF7D0BE521E8A604A68C0B2531C4B6060
:10266000107070473A7474003A7474003A747400CD
:102670000000000000000000010203040607080932
:102680000000000001020304010202030405060722
:1026900008090A0B0C0D0E0F101020256320002DC9
:1026A0002D2D7C2D2D2D7C2D2D2D0000D0260008CC
:1026B000000000201800000050010008E826000873
:1026C00018000020D0070000700100080000000082
:1026D00000000000000000000000000001000000F9
:0826E0001000000000127A0056
:04000005080000ED02
:00000001FF
